:100000000EC01BC01AC019C023C017C016C015C02F
:1000100014C013C012C011C010C00FC00EC01124F4
:100020001FBECFEDCDBF20E0A0E6B0E001C01D9225
:10003000A236B207E1F702D089C0E2CF85E080BFE7
:1000400084E088BF89BF96E097BB88BB7894FFCFD8
:100050001F920F920FB60F9211242F933F938F93FD
:100060009F938091600090916100009731F08C33F4
:10007000910519F08837910599F4C19A8091600033
:1000800090916100892B11F4C29ABA9A8091600014
:1000900090916100019690936100809360004DC043
:1000A0008F30910531F08B34910519F08738910527
:1000B00069F488B3897F88BB80916000909161006A
:1000C0000196909361008093600037C0843F21E0E7
:1000D000920761F4BA98C298809160009091610093
:1000E0000196909361008093600027C09C01255F7A
:1000F00031402336310598F4B29B0BC0BA9A88B3CD
:10010000866088BB81E090E09093610080936000FE
:1001100014C0019690936100809360000EC08835F2
:1001200022E092072CF0109261001092600005C04E
:10013000019690936100809360009F918F913F9111
:100140002F910F900FBE0F901F901895F894FFCF2E
:00000001FF
